:020000040000FA
:1000000000100010010300000503000007030000BA
:10001000090300000B0300000D03000000000000B6
:100020000000000000000000000000000F030000BE
:10003000110300000000000013030000ED81000028
:1000400015030000E5360200AF3C02001143020038
:100050005F440200150300001503000015030000B3
:100060001503000015030000150300001503000030
:100070001503000015030000150300001503000020
:10008000150300001503000015030000E937010007
:1000900015030000F9B80100150300001503000066
:1000A00015030000EB190000150300001503000004
:1000B00015030000150300001503000015030000E0
:1000C00015030000000000000000000000F002F82E
:1000D00000F07EF80AA090E8000C82448344AAF164
:1000E0000107DA4501D100F073F8AFF2090EBAE862
:1000F0000F0013F0010F18BFFB1A43F0010318475C
:1001000038660300786603000A444FF0000C10F8CC
:10011000013B13F0070408BF10F8014B1D1108BF85
:1001200010F8015B641E05D010F8016B641E01F825
:10013000016BF9D113F0080F1EBF10F8014BAD1C75
:100140000C1B09D16D1E58BF01F801CBFAD505E093
:1001500014F8016B01F8016B6D1EF9D59142D6D3ED
:10016000704700000023002400250026103A28BF15
:1001700078C1FBD8520728BF30C148BF0B60704719
:10018000662926F0A685642924F0D885752924F0EF
:10019000D585782924F00C86632925F014837329EA
:1001A00025F01983002070471FB526F010FD25F0BB
:1001B00067FB04000020002126F0A2FA401C6060CA
:1001C0000020002126F086FAE0601FBD10B510BDAA
:1001D00025F026FE1146FFF7E7FF12F03CFF25F061
:1001E0004DFE03B4FFF7F2FF03BC25F093FE0000C1
:1001F00072B64FF00000704762B64FF000007047D3
:1002000030BF4FF000007047004700002DE9F05F5D
:100210002E482F4D0024B0F8120F296800EB800003
:1002200001EB400702F0AFF800F092FA2949DFF83D
:10023000A8A0002008709AF80000284E002804BFEB
:100240002868143002D007F0C4FD2868DFF89090C9
:100250004FF00108DFF88CB0306006F041F91EF075
:100260003BFC99F8000013280BD01F4800780028A9
:1002700008BFBDE8F09F07F0ACFD89F80080BDE83D
:10028000F09F3068296888420DD29AF8000010B1BA
:100290001648007818B90021084602F069FE28685F
:1002A00000F59670306074B9286887420BD28BF8DD
:1002B0000080FF2000F065FA0D48012480F80080DE
:1002C0000C4880F800800DF03BFEC6E700F00720E8
:1002D000A8130010CA12001000C00720C01400109C
:1002E000B414001011130010391300107213001011
:1002F00077130010781300107047A55AFFFFFFFF17
:1003000008480047FEE7FEE7FEE7FEE7FEE7FEE7F8
:10031000FEE7FEE7FEE7000003480449024A044BFB
:1003200070470000CD000000B85F00100010001002
:10033000000000102DE9F04FE04883B00025057063
:10034000DF48DFF884C3FF230570DE4807882846AE
:1003500002A9F0220A540CF80030401CC0B2022856
:10036000F6D302F010F8D94ED949DFF86CA3B08A61
:100370000A6800EB800002EB4000D64A0024D94B0B
:100380001060D6488AF80050A0460570D44800781E
:10039000022808BF012003D0042808BF022000D192
:1003A0001870D14806F540590570D048057006F51B
:1003B00080451BF0E4FA1BF058FB9AF800000F216F
:1003C00021EA0002DFF828B3C44801239BF800109B
:1003D000007800F044FFC74801789BF80000814294
:1003E00027D1C5490978052907D1C4490978884228
:1003F00003D000218AF800100C46C14A304400F5B1
:1004000040509AF80010127890F8870D1143084078
:10041000B2498AF80000087858B9B1480078022833
:1004200004BF0220087004D0042818BF082800D197
:100430000870A448008810F0010F24D0B8F1000F14
:1004400021D1B0494FF001080868401C086003281A
:1004500019D3DFF8B4B2DBF8001088420ED9AB49EB
:10046000088810F4806F09D140F480600880002370
:10047000642201214CF210000AF02CFAA14900205C
:100480000860CBF800001EF027FBA1480078042884
:100490001FD0062841D199F80A0FF0B38948008887
:1004A00010F0010F39D09B480078B0B39A4800781B
:1004B00098BB9A4801788E48007881422DD198489F
:1004C000B9F8081F0088884227D296480078642827
:1004D00023D29548007800281CBFB17800290FD09E
:1004E0008E48874A0078304400F5405090F8870DD8
:1004F000014011709AF80020114308408AF800006A
:1005000095F8710210F0200F0AD09AF80000032825
:100510000ED086490020087000E07EE08449087013
:100520009AF800B0A34578D082480078F0BB0BE081
:100530007E490870B07A00F003008AF8000069482C
:1005400001787B480170EBE77B48007800281CBFEE
:1005500095F8F40100285ED10020DFF8E0C1012306
:100560000DF1080E2BFA00F111F0010F04D024FA5E
:1005700000F111F0010F1CD0F0210EF80010401C0A
:10058000C0B20228EED39DF809109DF8080002F0D1
:10059000EFFCF07810F0020F3DD0604C207831185D
:1005A00001F5405191F8871D032900E033E00ED09A
:1005B00031E030210EF800109CF8002003FA00F121
:1005C00022EA01018CF800105D490B70D7E757490A
:1005D000097803291FD001230022401CCDE9002304
:1005E000C1B29AF80030052001F07EFE3D48007847
:1005F000012803D0022808BF022100D001210223D4
:100600000022CDE9002320789AF80030401CC2B2C5
:10061000022001F069FE9AF8004005F061FF1DF02C
:1006200027FC3B480078062817D095F86802002878
:1006300004BF03B0BDE8F08F71793848007881427B
:1006400019BF31798142012000F09BF804BF03B04B
:10065000BDE8F08F03B0BDE8F08F95F8D602022810
:100660000FD118480088C107B1EBC77F09D0B18A04
:10067000074601EB81021649096801EB4202154960
:100680000A601448016812480068814213D207F0DA
:10069000A0FB1E4800236422018841F00101018073
:1006A00001214CF201000AF015F9194901200870E6
:1006B00003B0BDE8F08F0DF043FC7AE61113001093
:1006C00026130010461300109412001000C00720DB
:1006D000A8130010C01400104C1300100E130010CB
:1006E000041300100013001077130010781300108B
:1006F0003D1300100313001013130010F412001028
:1007000005130010B0100010AC1000108E12001075
:10071000B4140010F61300104D1300103B1300101A
:10072000B41100106B140010E8120010CA1200106F
:10073000CB12001074130010EC120010BE14001045
:100740004B13001088428CBF401A081AC0B2704781
:10075000FF490020FF4A0870FF211170FE4A107007
:10076000FE4A1070FE4A1080FE4A1170FE49087061
:10077000FE490870FE490870FE490870FE4908707D
:10078000704770B5002582B00446FF2816D1F048A6
:10079000F0490570FF200870EF490D70EF490D70AA
:1007A000EF490D80EF490870EF480570EF4805707C
:1007B000EF480570EF480570EF480570EF4E14F0F4
:1007C000010F18D00B230022CDE900231346FF218F
:1007D000052001F089FD002116F8310020F081008C
:1007E00006F8310006EBC1004570481CC1B237293C
:1007F000F2D3E348057014F00E0F19D00B2300223A
:10080000CDE900231346FF220021022001F06CFDF8
:10081000002116F8310020F00E0006F8310006EB3A
:10082000C1008570C5700571481CC1B23729F0D36D
:1008300014F0100F16D00B230022CDE9002313462D
:10084000FF218F2001F050FD002116F8310020F02B
:10085000100006F8310006EBC1004571481CC1B21A
:100860003729F2D314F0200F16D00B230022CDE944
:1008700000231346FF21902001F036FD002116F8D9
:10088000310020F0200006F8310006EBC100857130
:10089000481CC1B23729F2D314F0400F04BF02B094
:1008A00070BD0B230022CDE900231346FF219120C8
:1008B00001F01AFD002016F8301021F0400106F872
:1008C000301006EBC001401CC0B2CD713728F2D306
:1008D00002B070BD2DE9F04FAA4FA84DAA4A97F873
:1008E000009083B0127815F8391001EA0208A74980
:1008F000097804291CBF03B0BDE8F08F9449A14AD0
:10090000DFF890C291F800A0A1491378A24C1944D5
:1009100001F54052591CDFF864B200269CF800C073
:100920002478C9B20BEBC303BAF1010F33D0BAF18B
:10093000020F1CBF03B0BDE8F08F48459CBF03B059
:10094000BDE8F08F18F0020F04BF03B0BDE8F08FD0
:10095000987892F8872D024012EA0C0F04D0002CF0
:1009600004BF03B0BDE8F08F0F230022CDE90023C0
:1009700003460A460121022001F0B6FC387815F83A
:10098000301021F0020105F8301005EBC000867030
:1009900003B0BDE8F08F484524BF03B0BDE8F08F39
:1009A00018F0040F04BF03B0BDE8F08FD87892F8B8
:1009B000872D024012EA0C0F04D0002C04BF03B0B4
:1009C000BDE8F08F0F230022CDE900230A4603463D
:1009D0000221084601F088FC387815F8301021F023
:1009E000040105F8301005EBC000C67003B0BDE887
:1009F000F08FDFF89CC130B49CF804209CF805C04F
:100A00000023944528BF5D4C09D314F832500D42A1
:100A10001CBF5B1CDBB2521CD2B29445F5D28342A0
:100A20002CBF0120002030BC70475C4B30B41C78D8
:100A3000544B0022114693F800C04B4B0A2C1B78F4
:100A40004CD2DFE804F03C0505052F2F4B2F2F2F4C
:100A50005349097888428CBF421A0A1AD2B2514CC3
:100A60002478012C0AD0884217D84F49097881424E
:100A700013D813F0010F0AD001212FE0884208D3C8
:100A800049490978884204D813F0010FF4D10221B2
:100A900024E013F0010F20D102E013F0010F1CD16C
:100AA00009211BE0414A127890428CBF821A121A27
:100AB00012F0FF0212D013F0010F0CD10DE06045CF
:100AC0008CBFA0EB0C02ACEB000212F0FF0205D0D1
:100AD00013F0010F01D0062100E008212C4C6579AC
:100AE000654538BF0022DFF870C09CF800C0634540
:100AF00005D1184B1B78984208BF002000D0052074
:100B0000114408442A49637B097830BC084403EB4C
:100B1000C000704770B41349264A00200B78124970
:100B200091F800C011490C780D490D8800EB400187
:100B300012F811609E4242D102EB41014E786645A7
:100B400004BF0E79A6423AD14988A94237D233E090
:100B500000130010031300100413001005130010FD
:100B60000C130010091300100A1300100B130010CF
:100B70002013001021130010221300108015001004
:100B8000251300103B13001010130010B4140010B4
:100B900000C00720BE140010741300103913001099
:100BA000B61400103E130010B71400103D130010CF
:100BB000261300103817001070BC00207047401C2E
:100BC000C0B20828B2D370BC012070472DE9F04FA5
:100BD0000646FF48FF4A4FF0010A10F83600127827
:100BE0004FF0080B00EA0204FB480670F84800EBDF
:100BF000C605FA4FDFF8E883DFF8E893012910D043
:100C000014F0040F33D004203870E87888F800001E
:100C10003046FFF70AFFA9F80000FFF77BFF30B36B
:100C200035E014F0020F0CD002203870A87888F854
:100C300000003046FFF7F9FEA9F80000FFF76AFF51
:100C400028BB14F0080F0CD087F800B0287988F87A
:100C500000003046FFF7E9FEA9F80000FFF75AFF51
:100C6000A8B914F0010008BFBDE8F08F17E014F038
:100C7000080F0FD087F800B0287988F800003046B8
:100C8000FFF7D3FEA9F80000FFF744FF10B10120E1
:100C9000BDE8F08F14F0010008BFBDE8F08F87F8C1
:100CA00000A0687888F800003046FFF7BEFEA9F87B
:100CB00000000120BDE8F08FC54A102902EBC000FA
:100CC00004BF40797047202904BF807970474029CC
:100CD00004BFC0797047802914BF00204078704756
:100CE0002DE9F04F0D46BB490446164609782942C6
:100CF0003DD0B4423BD8DFF8E082B54FDFF8E09258
:100D0000DFF8D8A2DFF8DCB217F8340028422AD086
:100D100088F80040102D04BF07EBC400407911D0C3
:100D2000202D04BF07EBC40080790BD0402D04BFF9
:100D300007EBC400C07905D0802D12BF002007EB5F
:100D4000C400407889F800008AF800502046FFF778
:100D50006CFEABF80000802D02D0FFF7DBFE10B177
:100D60000120BDE8F08F601CC4B2B442CCD9002091
:100D7000BDE8F08F2DE9F04F064696480D46007805
:100D8000084008BFBDE8F08FB24288BF3246002459
:100D9000B71A3AD4DFF84092DFF83482DFF840A285
:100DA000DFF838B2311B18F83100284229D089F811
:100DB0000010C8B2102D04BF08EBC000407911D05C
:100DC000202D04BF08EBC00080790BD0402D04BF5C
:100DD00008EBC000C07905D0802D12BF002008EBC1
:100DE000C00040788AF800008BF80050C8B2FFF7C6
:100DF0001CFE7C490880FFF78DFE10B10120BDE884
:100E0000F08F601CC4B2A742CCDA0020BDE8F08F9E
:100E10002DE9F04F0024DFF8B8A1DFF8CCB1064689
:100E200089462746002F08BF80240AD0012F08BF1B
:100E3000402406D0022F08BF202402D0032F08BF71
:100E40001024B9F1020F06D09BF805202146304648
:100E5000FFF746FFE8BB5F499BF804000978214291
:100E600036D0B04288BF30460025B6EB00082FD4FC
:100E7000711B1AF83100204226D05748102C0170FF
:100E8000C8B204BF0AEBC000407911D0202C04BFC7
:100E90000AEBC00080790BD0402C04BF0AEBC000E5
:100EA000C07905D0802C12BF00200AEBC00040782A
:100EB0004B4A107049480470C8B2FFF7B6FD494963
:100EC0000880FFF727FE20B9681CC5B2A845CFDA15
:100ED00000E009E0B9F1020F09D19BF80520214695
:100EE0003046FFF7FDFE10B10120BDE8F08F781C01
:100EF000C7B2042F96D30020BDE8F08FDFF8D4C02E
:100F000000B5334B9CF800C013F8303001EA0C01F7
:100F10000B4206D01146FFF759FE00281CBF0120E6
:100F200000BD002000BD2B4B00B529491B7811F8EE
:100F3000302003F001031A4204BF002000BD264AFE
:100F400001EBC0011070264A49781170234A012133
:100F50001170FFF76AFD23490880012000BD2DE9CB
:100F6000F0438518ECB20F468C421DD8184EDFF8BE
:100F70006480DFF8789016F8340098F8001001F0DB
:100F80000B0108420CD099F8000008B1A54207D027
:100F900001212046FFF71AFE10B10120BDE8F083C1
:100FA000601CC4B2BC42E6D90020BDE8F0832DE944
:100FB000F04705461646814288BF014614466F1A1F
:100FC000974231DBDFF80880DFF8089010E000007E
:100FD0008015001010130010091300100A130010E0
:100FE0000B1300100C13001000C00720C4120010D7
:100FF000DFF840A42B1B99F8001018F8330001F01B
:101000000D0108420CD09AF8000008B1B44207D094
:10101000D8B20221FFF7DAFD10B10120BDE8F08758
:10102000601CC4B2A742E5DA0020BDE8F0872DE9D4
:10103000F04185180C468D421BD8FF4EFF4FDFF85C
:10104000F48316F83400397801F00D0108420CD011
:1010500098F8000008B1A54207D002212046FFF70A
:10106000B5FD10B10120BDE8F081601EC4B2A542FB
:10107000E7D90020BDE8F0812DE9F0430546881846
:101080000C461646A8421FD8EB4FDFF8B083DFF8B6
:10109000A49317F8340098F8001001F00B010842EF
:1010A0000DD099F8000010B1A019A84207D0012175
:1010B0002046FFF78BFD10B10120BDE8F083601CD6
:1010C000C4B2A019A842E4D90020BDE8F083F0B56D
:1010D000DA4E0446337813F00F0008BFF0BDD7484E
:1010E000D54FD74D007800F00B0091B1012948D0C1
:1010F00002291CBF0020F0BDF2B317F8340003F042
:101100000D0108425DD002212046FFF75FFDA0B32C
:1011100065E0AAB117F83410014204D0012120463D
:10112000FFF754FD50BB317817F8340001F004018B
:10113000084209D002212046FFF748FD20B14EE0C9
:101140002046FFF7F0FEC8B9697901222046FFF773
:1011500006FF98B9297901222046FFF728FF68B9D0
:10116000697901222046FFF762FF38B92979012207
:101170002046FFF781FF02E01FE022E02FE070BB76
:10118000F0BD4AB117F83410014209D001212046C0
:10119000FFF71CFD20B122E02046FFF7C4FEF0B9A6
:1011A000697901222046FFF7DAFEC0B96979012288
:1011B0002046FFF73CFF90B9F0BD2046FFF7B3FE95
:1011C00068B9297901222046FFF7F1FE38B929795B
:1011D00001222046FFF750FF002808BFF0BD012084
:1011E000F0BD2DE9F043884607460146914640464A
:1011F000FFF70EFE934E944D944C60B94A46394623
:101200004046FFF764FF30B99149002030700880F4
:10121000FF21297020708F4930788F4B91F800C0E2
:101220008E4A84450BD193F800C02E78B44506D180
:1012300092F800C02678B44508BFBDE8F083DFF817
:1012400020C2884EDCF800C00CF1280CC6F800C0A3
:1012500008702878187020781070BDE8F0832DE9A8
:10126000FF4FDFF8049283B00C4699F800009346D4
:101270004FF00008884234D17C4A107888B36E4918
:1012800011F8341001422CD06D49794B214401F5FD
:10129000405102911B7891F8871D0BEA0303194214
:1012A00002D0744B1B78E3B1DFF894C1631CDFB24A
:1012B000614B9CF803200CF5405A03EBC4060CF577
:1012C000804510287DD00DDA012811D06A4BDFF857
:1012D000ACC102281B7875D0042874D0082854D1DA
:1012E00061E17CE1202851D0402823D080284CD1D6
:1012F00012F0020F01D0032908D00B230022CDE900
:10130000002307233946052000F0EEFF5C4880F8F3
:101310000080494886F8018010F8341021F08101DE
:1013200000F834109AF8230F78B356480178491C16
:1013300001704BE10F230022CDE90023072339463A
:10134000912000F0D1FF504886F8078003210170FA
:10135000B5F8E00100EB80014C48006800EB410269
:101360004B490A6095F8021201EB810100EB410143
:101370004848016095F8EA0100281CBF8120FFF76A
:1013800000FA95F8E40100B18DE052E00F2300224D
:10139000CDE9002307233946902000F0A5FF3A4904
:1013A00086F8068002200870B5F8DE0100EB8001A7
:1013B0003648006800EB410235490A6095F8011291
:1013C00002E012E073E0B1E001EB810100EB4101CA
:1013D0003048016095F8E90100281CBF8120FFF723
:1013E000D0F995F8E30120B35DE00F230022CDE9A9
:1013F0000023072339468F2000F076FF224986F824
:10140000058001200870B5F8DC0100EB80011F4861
:10141000006800EB41021E490A6095F8001201EBDA
:10142000810100EB41011B48016095F8E8010028AB
:1014300032E077E0C4120010801500101013001085
:1014400000C007200A130010091300100B1300102E
:101450000C13001020130010211300102213001091
:10146000B81300101C130010031300100413001015
:101470000513001074130010061400100714001058
:10148000251300101213001013130010A8130010DE
:1014900014130010181300101CBF8120FFF771F9FE
:1014A00095F8E201F0B30E20FFF76BF98EE08CF8AF
:1014B000003012F0020F01D0032909D00F230022BF
:1014C000CDE9002307233A460121022000F00CFF5A
:1014D00086F80280FE4D9AF8210F10B1FD48007881
:1014E00000B315F8340010F0040F6FD00298F178B3
:1014F00090F8870D084010EA0B0F02D0F6480078EC
:1015000080B10F230022CDE90023022107233A46B0
:10151000084600F0E9FE15F8340020F0040005F854
:10152000340000E03EE086F803804FE08CF80030A5
:1015300012F0020F01D0032909D00F230022CDE9B8
:101540000023022107233A46084600F0CDFE86F824
:101550000380DF4D9AF8210F10B1DE48007808B300
:1015600015F8340010F0020F30D00298B17890F8DE
:10157000870D084010EA0B0F02D0D748007888B1D9
:101580000F230022CDE9002307233A460121022040
:1015900000F0AAFE15F8340020F0020005F834002F
:1015A00086F8028012E08CF8003012F0020F01D0B1
:1015B000032909D00F230022CDE9002307233A464F
:1015C0000321022000F090FE86F80480C048C34941
:1015D00010F83420097822EA010100F83410C04DD7
:1015E0002146069A2878FFF7FCFDBE480168BE48F0
:1015F0000268BE48914201D9017869B1BC490A78B4
:10160000B6490A70BB49097889F80010BA490A78C6
:10161000BA490A7080F80080B04A107848B1B849D9
:10162000B84B087099F800101970B449B64B097896
:101630001970297821B1012933D002297BD153E0D7
:1016400010F0F00F10D099F80010A14208D1A04975
:1016500011F83410084004BF07B0BDE8F08F5BE01C
:101660001DD31AE028705CE0B8B399F80010A142CD
:1016700012D110F0020F1CBF0121297010F0040FCD
:101680001CBF02212970924911F83410084004BF90
:1016900007B0BDE8F08F3FE001D90120E2E702206A
:1016A000E0E710F0F00F0AD099F80000A0429FBFC9
:1016B00085F80080002007B0BDE8F08F31E070B100
:1016C00099F80010A14209D1814911F8341008405D
:1016D00004BF07B0BDE8F08F1EE02CE021D20398D4
:1016E00010F0020F27D124E010F0F00F07D099F886
:1016F0000000A04228BF85F8008012D322E0A0B1EC
:1017000099F80010A1420BD1714911F8341008402A
:1017100004BF07B0BDE8F08F022007B0BDE8F08F2E
:1017200003D207B00120BDE8F08F039810F0040F3A
:1017300001D185F80080714889F8004082F8008066
:1017400080F8008007B00020BDE8F08F2DE9F04F51
:10175000DFF8B8A1044662489AF800106C4D017099
:10176000DFF89481DFF888B1624E6A4F4FF00009CC
:101770000129204603D0FFF74BFB78B149E0FFF782
:1017800047FB80BB002229782046FFF7E8FB50BBCF
:10179000002229782046FFF74AFC0AE00022297837
:1017A0002046FFF704FCF0B9002229782046FFF715
:1017B00063FCC0B958498BF80090A1F8009088F8F4
:1017C000009034709AF800205449012A0CD02A78ED
:1017D000A21A1ED4231A0B4403F5405393F8873DF5
:1017E0009BB1211A397014E02A782046944210D80F
:1017F0000B1803F5405393F8873D0BB1387008E0A0
:10180000401CC0B29042F3D903E0401CC0B28242F7
:10181000E0DADFF80CE19BF80010334B9EF8002073
:10182000DFF8C0C08A420BD13E4A96F800B0127869
:101830005A4505D13C4A98F800B012785A450FD065
:101840001A682832CCF80020364A8EF8001096F834
:1018500000B082F800B0344A98F800B082F800B0C6
:10186000DFF898E0DFF874B011F0F00F1CBF9BF8C0
:101870000020914265D02D4A102908BF92F8D80166
:101880000BD0202908BF92F8D90106D0402908BF03
:1018900092F8DA0101D0802905D020B118682830EB
:1018A000CCF800004DE0DCF800001A68904248D8FF
:1018B0009AF8000001283ED02A783078824201D878
:1018C000A0423ED98BF800903C708EF800902FE03B
:1018D00080150010C11200107413001004130010C2
:1018E000001300101C130010B8130010C3120010D6
:1018F0000A130010091300100B1300100513001039
:101900000613001007130010081300103E130010F8
:10191000B7140010031300100C13001000C00720B0
:1019200020130010211300102213001000000820C3
:101930002046BDE8F08F30782A78904298BF8442E4
:10194000C0D8DCF800001A68904207D88BF8001065
:101950003078387098F800008EF800003878BDE8CC
:10196000F08F0000FF480D210160FF4941614FF0F9
:10197000E0234FF00072C3F88021016841F00101BB
:10198000016000BF00BF8168C9B28160042141606D
:1019900040F28F410161016821F0010101600821DD
:1019A0004160C3F800214903016440F201714164C0
:1019B000052181647047ED48016841F00D01016027
:1019C000EB4941610421416040F28F4101610168AE
:1019D00021F001010160082141604903016440F2E6
:1019E000017141640521816470472DE9F84FDFF8EA
:1019F0007483D8F80C40DFF87CA3DFF87CB3DFF801
:101A00007C93DF4E14F0010F4FF000074FF00105FB
:101A10007DD0D8F80C0020F00100C8F80C00D9489F
:101A200090F800E0BEF1320F2ED3D8F8040040F059
:101A30000400C8F80400306810F0040F67D1D249E0
:101A4000D9F800200968914261D240F0040030606A
:101A5000CE48032300220168491D0160012148F29C
:101A6000111008F037FFCA489AF8001001709BF86F
:101A7000000000F00F01C7480170D9F8000000F124
:101A80001E01C148016099E0D8F82400C0F30A01A2
:101A9000F02000EAD103C04801F07F010278BF487E
:101AA00002EB820C00F81C3000EB4C004170D8F8BF
:101AB00028C0C0F802C0D8F82CC0C0F806C0D8F8BA
:101AC00004C04CF0040CC8F804C0E02B0ED0DFF8C2
:101AD000C8C2B02B7ED0312A2EBF8CF80070501CAB
:101AE0008CF80000A7480EF1010166E00C2929D00E
:101AF000A1F11002032A3BD205FA02F1A84A137899
:101B00000B431370A74A13788B43137000E055E022
:101B1000DFF894C2A54B90F802E09CF800201878FA
:101B2000BEF1050F7DD0014204BF084318709AF83A
:101B30000000084010438CF800009D4802781143D3
:101B400001703BE09B490A7842F001020A709A4911
:101B500082780878052A07D1984A127812F0010F86
:101B600018BF20F0010001D140F00100087025E00D
:101B7000491F042922D2924B05FA01F1DFF848C22D
:101B80001A780A431A708F4A13788B4313708F4B5D
:101B900090F802E09CF800201878BEF1050F40D0C4
:101BA000014204BF084318709BF80000084010432E
:101BB0008CF80000864802781143017014F0020F7F
:101BC00041D0D8F80C0020F00200C8F80C00814881
:101BD000007800E0A1E00090002804BF7E48057076
:101BE00031D07E48DFF8F8E14FF0020C007800EBCE
:101BF00080011EF8112002F00F034CEA0343C8F8DD
:101C000030300EEB410102F0F0024B7843EAC202A1
:101C1000C8F83420D1F80220C8F83820D1F80610CE
:101C200000E074E0C8F83C102121C8F80410009AC4
:101C30006849521E63280A7027BF684807706749C1
:101C4000401C38BF087014F4806F3BD0D8F80C00EB
:101C500020F48060C8F80C00624890F800E0BEF103
:101C6000000F04BF604805702CD06048604B0178BD
:101C700001EB810013F8102002F00F0C45EA0C4C28
:101C8000C8F850C003EB400002F0F002437843EA8A
:101C9000C202C8F85420D0F80220C8F85820D0F862
:101CA0000600C8F85C008120C8F804004D4AAEF177
:101CB00001006329107027BF4C4807704B4A481C2D
:101CC00038BF107014F0CC0F49D0D8F80800010CC0
:101CD00048480170D8F80810090E4170D8F80C1067
:101CE000C1F304418170D8F80C10C1F38151C17067
:101CF000D8F8080010F0020F32D0D8F81C0010F00D
:101D0000020F2DD0306810F0080F2AD0AEE08A43C1
:101D10008CF800208843187050E7A1F11002032AC4
:101D20000BD2354A1180354A002143189B78535411
:101D3000491C89B20829F8D340E74A1F042A34BF56
:101D40002F4A304A1180002134BF2F4A2F4A61D2D6
:101D500043189B785354491C89B2082958E0E7E09E
:101D60008BE05FE0004004400B80AB00008004404B
:101D70001D80AB00A3140010AB140010A8130010BA
:101D80005C1300104B1200105812001028140010A1
:101D90002D130010301300104D120010804300105E
:101DA000A6140010A4140010A21400102B1300108D
:101DB0002C130010A0130010A1130010A313001087
:101DC000AE140010AC140010AA1400102E13001052
:101DD0002F1300104E120010511200104F1200105D
:101DE00080450010531200105612001055120010BA
:101DF0008049001000100010A8140010801400107A
:101E0000B014001076140010901400107814001014
:101E10009ED3D3E643189B785354491C89B20829B2
:101E2000F8D3CBE6FF49D9F80020096891421DD2CA
:101E300040F008003060FC48032300220168491C80
:101E40000160012148F2101008F044FDF7489AF8AB
:101E5000001001709BF8000000F00F01F4480170C1
:101E6000D9F8000000F11E01EE4801600820C8F812
:101E70000400F0480570F0480570D8F8080010F02C
:101E8000800F30D0D8F81C0010F0800F2BD03068B5
:101E900010F0100F23D1E349D9F8002009689142CE
:101EA0001DD240F010003060DF4805230022016899
:101EB000491D0160012148F2401008F00BFDDB488C
:101EC0009AF8001001709BF8000000F00F01D8484C
:101ED0000170D9F8000000F11E01D2480160D54818
:101EE0000570D548057014F0040F21D0D34890F840
:101EF0000D0FE8B1D2480078D0B1D24A4FF000714E
:101F00001160D8F8000040F00100C8F8000000BFE0
:101F100000BFD8F80800C0B2C8F80800D8F8000020
:101F200020F00100C8F8000000BF00BF42F8801C8C
:101F3000DFF814C3DCF80C00DFF810E310F0010F39
:101F400057D0DCF80C1021F00101CCF80C10C0497E
:101F50004FF0040B91F800A0BAF1320F19D3CCF86E
:101F600004B0316811F4806F43D141F48061316075
:101F7000DEF80010B74A491DCEF80010B64B00211C
:101F800052F8214043F82140491C89B20429F7D373
:101F900080E0DCF82410F022C1F30A0102EAD10447
:101FA000AE4A01F07F011378AD4A03EB830802F8D3
:101FB000184002EB48025170DCF82880C2F8028019
:101FC000DCF82C80C2F80680DCF82080CCF804B065
:101FD000E02C0FD0DFF88482B02C4CD0312B2EBFF8
:101FE00088F80070591C88F8001099490AF101021C
:101FF0000A704FE010396E294CD28BB2DFF8648240
:10200000590903F01F0458F821A005FA04F34AEA1D
:10201000030A48F821A0DFF850A25AF8218028EAE4
:1020200003084AF821809278DFF840A2DFF8408266
:10203000052A15D058F8212022FA04F414F0010FD3
:1020400004BF1A4348F821205AF821201A434AF8BD
:102050002120884A52F82140234342F8213019E0D8
:102060005AF821209A434AF8212058F821209A430F
:1020700048F821200EE0A1F110036E2B0AD27E4B0E
:1020800019807E4B00215418A4785C54491C89B2F5
:102090000829F8D310F0020F3CD0DCF80C1021F026
:1020A0000201CCF80C1076490A78002A04BF754961
:1020B0000D702FD07449DFF8D4B14FF0020A0978BF
:1020C00001EB81031BF8134004F00F084AEA0848AB
:1020D000CCF830800BEB430304F0F00493F801805C
:1020E00048EAC404CCF83440D3F80240CCF8384075
:1020F000D3F80630CCF83C302123CCF80430604BC8
:10210000521E31291A7027BF5F490F705E4A491C61
:1021100038BF117010F4806F3BD0DCF80C1021F444
:102120008061CCF80C105A490B78002B04BF594938
:102130000D702ED0DFF860B1DFF860819BF80020D1
:1021400002EB820118F8114004F00F0A45EA0A4A2E
:10215000CCF850A008EB410104F0F00491F80180A4
:1021600048EAC404CCF85440D1F80240CCF85840B6
:10217000D1F80610CCF85C108121CCF80410444C46
:10218000591E312A21702EBF8BF80070511C8BF81C
:10219000001010F0CC0F08BFBDE8F88FDCF8080085
:1021A0003F4B10F0020F27D0DCF81C0010F0020F9C
:1021B00022D0306810F4006F17D11968D9F80020C8
:1021C000914212D240F400603060DEF800002149F4
:1021D000401CCEF80000204A002051F8204042F870
:1021E0002040401C80B20428F7D30820CCF804001B
:1021F0002448057027480570DCF8080010F0800FAF
:1022000008BFBDE8F88FDCF81C0010F0800F08BF95
:10221000BDE8F88F306810F4805F5FD11968D9F895
:1022200000203FE058120010281400102D13001059
:1022300030130010511200105612001000F0072049
:102240003913001080E100E0008004402C140010DD
:102250005C120010C0590010005900105E120010EE
:10226000804D0010C05A0010005A00104059001054
:1022700080590010805A0010B21400108814001009
:102280005F1200106212001060120010804F0010E8
:1022900064120010671200106612001080510010C6
:1022A00068120010914219D240F480503060DEF87C
:1022B00000000523401DCEF800000022012148F255
:1022C000411008F007FBD049D04A002051F82030D7
:1022D00042F82030401C80B20428F7D3CC48057067
:1022E000CC480570BDE8F88F2DE9F8430646DDE9D6
:1022F00008540F469046994614F0010F04D04B46FF
:102300003046009501F07AF814F0020F06D04B46E3
:10231000424639463046009501F0C8FB14F0040FE0
:102320000AD0BD48007B012806D94B4642463946B3
:102330003046009501F0D9FE14F0080F08BFBDE843
:10234000F8834B46424639463046009502F0B8FACB
:10235000BDE8F88370B50C46B04905460A78002AF6
:102360000CBF012200220A7014F0010F1CBF284686
:1023700000F0BFFE14F0020F08BF70BD2846BDE894
:10238000704001F048BB10B500F0F9FCBDE810400A
:1023900001F0FFBB2DE9F05FDFF884E241EAC00401
:1023A00040EA02054FF0010C0A9FDEF8000000260B
:1023B0004CEA024C4FF0810B4FF000784FF0E029CF
:1023C000F7B3984F3F78002F08BFBDE8F09FDFF8C4
:1023D00058A29AF80070322F0ED310F4804F18BF15
:1023E000BDE8F09F914940F480400A68521D0A60A0
:1023F000CEF80000BDE8F09FC9F88081DFF814E254
:102400009EF8000060B18A48C0F850C04465196861
:1024100081655968C165C0F804B08EF8006026E097
:10242000DFF810B2DFF810C29BF8004004EB840024
:102430000CF810500CEB400C00208CF8011000E060
:1024400019E0002A08D90CEB0005401C13F8011B09
:10245000C0B2A9708242F6D8312C02D38BF800604A
:1024600002E0601C8BF80000781C8AF80000C9F8B4
:102470000081BDE8F09F714F3F78002F08BFBDE895
:10248000F09FDFF8BCA19AF80070642F20D310F001
:10249000400F18BFBDE8F09F6A4D6B4C2968226859
:1024A000914228BFBDE8F09F40F04000CEF8000008
:1024B0006648032300220168491D0160012148F29A
:1024C000651008F007FA20681E302860BDE8F09F0C
:1024D000C9F88081DFF878E19EF8000060B15D48BE
:1024E000C0F850C04465196881655968C165C0F875
:1024F00004B08EF80060BAE7DFF85CB1DFF85CC1C9
:102500009BF8004004EB84000CF810500CEB400CDE
:1025100000208CF80110002A08D90CEB0005401CA3
:1025200013F8011BC0B2A9708242F6D8632C98D36D
:1025300094E770B584B00C468446089E01218DF85E
:10254000081026258DF80CC08DF809508DF80D4027
:1025500010258DF80E208DF80A5002258DF80F30C9
:10256000A0208DF80B5002AB08220096FFF712FF57
:1025700004B070BD00B585B00B4601218DF8081080
:1025800026228DF8092010228DF80A2002228DF8CB
:102590000B201B224FF0A00C8DF80C200C280CBF38
:1025A000662265228DF80D208DF80E0000208DF832
:1025B0000F00009302AB08226046FFF7EBFE05B068
:1025C00000BD30B585B00C4601218DF808102625D8
:1025D0008DF8095010258DF80A5002258DF80B5002
:1025E0001B258DF80C50844659258DF80D508DF81B
:1025F0000EC00092A0208DF80F4002AB0822FFF71A
:10260000C9FE05B030BD0000C059001000590010CF
:10261000621200106712001000C00720E5130010BE
:102620005C13001063120010641200102C140010D0
:1026300000800440651200108051001052120010FA
:102640005312001058120010A81300102814001084
:10265000561200100040044054120010804900102F
:102660002DE9F0034FF0E0264FF00075C6F88051D9
:10267000FF490024087863282EBF0C70401C0870A6
:10268000FC4F387860B3DFF8F0C3DFF8F0834FF029
:1026900002099CF8000000EB800118F8112002F0FC
:1026A0000F0349EA0349F64BC3F8309008EB4101A8
:1026B00002F0F00291F8018048EAC2025A63D1F8B0
:1026C00002209A63D1F80610D963212159603C7029
:1026D00063282EBF8CF80040401C8CF8000003E0FB
:1026E000E8480178491C0170C6F80051BDE8F003C4
:1026F000704770B5E4480078642825D2E348007834
:10270000002808BF70BDDF48E14A017810686429DD
:102710001CD3E04B196811F0010F15D1DE4DDF4CD1
:10272000D5F800C02668B4450ED241F00101196009
:10273000401D106003230022012148F2611008F0BF
:10274000C9F820681E302860002070BD00281CBF1A
:10275000401E1060012070BD10B50446FFF7C9FF90
:10276000002808BF10BDB822C148C449007800EB5A
:10277000800001F8102001EB400101224A70802006
:1027800088700020C870087148718C71200AC87167
:10279000200C0872200E4872BDE8104060E72DE959
:1027A000F041BF4EBF4A82B030784FF0000500EBD9
:1027B000800002EB400C12F810009CF8011010F0A1
:1027C0000F0F5BD100110D2858D2DFE800F0FE9208
:1027D00085FD3B8585851907FC85FB00B2490020F6
:1027E0000CEB000292780A54401CC0B20728F7D3C1
:1027F0008879012870D10121084609F06FFE6BE04D
:102800009CF80200D0B385280ED19CF807109CF8E4
:1028100006200029A5499CF8033001EB52010A78F3
:1028200014BF1A439A430A700A239CF80720CDE983
:1028300000239CF806309CF805209CF80310FFF755
:1028400053FD49E0082947D2DFE801F046040404BB
:1028500046313131964ABCF8020002EB410222F8BF
:10286000020C60B14A1E01239340924AB0F5405FCA
:1028700092F800C02CEA030313700DD02CE0481E20
:10288000012202FA00F38B4802781A4302708A4848
:10289000084400F8015C1FE088480844372100F82C
:1028A000015C87480570874822F0B8FC14E09CF86A
:1028B000020010F0400FA1F105004FF0010101FAF4
:1028C00000F18148027814BF114322EA010101702E
:1028D00018BF7E4800D00570307831282EBF357083
:1028E000401C30707A480178491E017002B0BDE882
:1028F000F081BCF802404FF20122A01A94423BD072
:1029000015DC4FF20112A4EB0200944234D009DC32
:10291000B4F5C24F6CD0A4F50140103818BF302870
:1029200015D065E0012837D0052861D154E0B0F515
:10293000807F21D004DC01282ED0052858D14BE01F
:10294000A0F58070013827D0042851D144E0A1F1CE
:102950001000032806D2012282405E4803781A4301
:10296000027045E0481F042842D25B485B4A007869
:1029700000F00F0010703BE0594AC4F30320401EE2
:1029800092F85120C0B2904232D24B4B1A5C642A6A
:102990003CBF521C1A542BE0514AC4F30320401E82
:1029A00092F85120C0B2904222D2DFF810C11CF838
:1029B0000020642A1CD24B4F4B4B17F800801B7829
:1029C000984503E0CFE01AE1BFE07AE110D0521C55
:1029D0000CF800203B540BE0444890F8CD0200284E
:1029E0004348027814BF42F0040242F0020202702F
:1029F000002C3FF471AFA4F5714006381EBFA4F55A
:102A00007240B0F1060009292FD0A4F571400338B7
:102A10001CBFA4F57240B0F1030021D0A4F5014021
:102A200040381CBFA4F50040B0F5887011D0A4F563
:102A3000014011381CBFA4F50140B0F1610008D07D
:102A4000A4F5014065381CBFA4F50040B0F5B07096
:102A500006D1284890F80D0F10B12748007820B90A
:102A600005230022204607F035FFA4F5014045E08C
:102A700050120010511200104F120010804500102B
:102A8000004004404E12001060130010521200105B
:102A9000281400105C13001058120010A813001026
:102AA0004C120010804300106414001091130010A9
:102AB000B8140010BE1400109012001092120010F2
:102AC00096120010805B00104A13001012130010C1
:102AD0004B1200102D130010AB1400103013001017
:102AE00000C00720941200103B13001000000820C3
:102AF0006D13001000F007203913001040381CBF80
:102B0000A4F50040B0F5907003D1FC480168891C21
:102B100019E0A4F5014010381CBFA4F50140B0F144
:102B200011000DD0A4F5014061381FBFA4F501408C
:102B3000B0F16500A4F50040B0F5B0707FF4CCAE04
:102B4000EE480168491C0160C6E608297FF4C4AE5E
:102B5000EB4890F8900200287FF4BEAEE9499CF85B
:102B600002000870B8E601297FF4B6AE9CF80200B6
:102B700000F0E001402929D003DA01B3202908D16F
:102B80000DE0602931D0802904BFDF4805803FF483
:102B9000A3AEDD480580DD48FFF7DEFD9CE6DA4A9E
:102BA000BCF803409CF805101580002300930246F2
:102BB0000CF10603204604F020FC98B98CE60CF1D9
:102BC0000301002204F068FDA0B985E6CE4ABCF8F6
:102BD00003009CF805101580002204F0A9FA0028D3
:102BE0003FF47AAEFFF7B8FD76E604F08AFB0028E2
:102BF0003FF472AEFFF7B0FDC34805806CE60A29CA
:102C00001CD0BCF803109CF80500A1F580512639B2
:102C10001DD0A1F57061E2397FF45EAE00283FF46B
:102C20005BAEBB4991F8511088423FF655AEB94AA8
:102C30009CF80610104400F8011C4DE6B6499CF8BB
:102C4000020008709CF80300B449087044E69CF840
:102C5000021001F07F01012908BF01287FF43CAE7A
:102C6000BCF8060002281FD1AD49AE4ADFF8BCC24D
:102C70000D7005211170AC4A012111700022002154
:102C80000CEB02135D54491CC9B21029FAD3511C34
:102C9000CAB2042AF3D3A64AFF2111705170A54A83
:102CA0001170A54A082111709D49097801297FF406
:102CB00013AEA14A082111700BF08FF99F490880CB
:102CC0000AE60A297FF408AEBCF80300A0F52A4101
:102CD000553904BF01209A49B7D0A0F57F41FF398B
:102CE00008BF97483FF4F7ADF6E52DE9F041954C64
:102CF000E069954E10F4006F4FF0410717D09348EC
:102D0000007888B192484FF0007101604FF4803232
:102D1000226440F2017262644FF00502A26440F83E
:102D2000801C4FF0000030706760BDE8F0813078A3
:102D3000642816D3874D287810F0800F0AD103231A
:102D40000022012148F2601007F0C4FD287840F00D
:102D50008000287069480168491D01603078642846
:102D600002D8C0B2401C30707B49C82008707B4933
:102D7000142008707A4908706760BDE8F08110B5CA
:102D8000FFF7B7FC002808BF10BDA8217548764A98
:102D9000007800EB800002F8101002EB40000121E7
:102DA000417081700021C170212202716F4A41710E
:102DB00012788271C17101724172BDE810404FE416
:102DC00070B504460D46FFF794FC002808BF70BD9F
:102DD00002216448644B0278002002EB820203F86F
:102DE000121003EB420250709470D570BDE8704031
:102DF00036E42DE9F04180460E4615461F46069CF6
:102E0000FFF777FC002808BFBDE8F081C8215548CE
:102E1000007800EB800C544800F81C1000EB4C0CC0
:102E2000280A8CF801808CF802608CF803508CF82A
:102E300004008CF805708CF80640200A8CF8070016
:102E4000200C8CF80800200E8CF80900BDE8F04139
:102E500006E42DE9F04107460E4615461C46FFF7ED
:102E600048FC002808BFBDE8F081C8213D48027831
:102E70003D4802EB820200F8121000EB42020020F3
:102E800057709670002C07D91318401C15F8011BB9
:102E9000C0B2D9708442F7D8072C38BF002005D2C1
:102EA0001119C870611CCCB2072CF9D3BDE8F041F0
:102EB000FFF7D6BB70B504460D461646FFF719FC62
:102EC000002808BF70BD962126480378264803EBEA
:102ED000830300F8131000EB4303012159709C7029
:102EE000DD700020197158719871002E14BFD971CE
:102EF000D871BDE87040FFF7B3BB00002814001084
:102F0000000008204E130010A41200100100040558
:102F100000C0072066130010DC130010DD13001042
:102F2000B5120010B8120010B712001000580010AF
:102F3000A01400109D140010B6120010B212001060
:102F40000C140010004004406013001052120010D6
:102F500080E100E0A213001057120010631300106C
:102F6000641300105012001080450010B4140010BB
:102F700070B505460C4601F0BBFE28B1002D08BF18
:102F80001025002C08BF1024FFF7B3FB002680B1EA
:102F9000FD48FE494422007800EB800001F8102033
:102FA00001EB400046708670C57006714471FFF7F2
:102FB00057FBF7480078002818BF70BDF54908781E
:102FC000854209D14878844208BF70BDF24890F824
:102FD0005100012898BF70BDF04AF148002D18BF7C
:102FE000102D0CD0002C18BF102C12D0302D18BF73
:102FF000402D16D0302C18BF402C12D014E003788E
:10300000002C03F0030343F00103037018BF102CDE
:1030100005D1037803F0030343F002030370167035
:1030200002E00823037016700D704C7070BD10B56F
:103030000446FFF75EFB002808BF10BD3123D248CD
:10304000D24A0178082001EB810102F8113002EB2D
:103050004101487003208C7000220A54401CC0B209
:103060000928FAD9BDE81040FFF7FABA10B50446AE
:10307000FFF73FFB002808BF10BD1822C2480178A7
:10308000C24801EB810100F8112000EB410101224F
:103090004A708C70200AC8700020087148718871CD
:1030A000C87108724872BDE81040FFF7D9BA70B510
:1030B00004460D46FFF71DFB002808BF70BD3622F1
:1030C000B148B2490C23007800EB800001F81020D1
:1030D00001EB4002200A53709470D070200C1071E4
:1030E000200E50719571280AD071BDE87040FFF72D
:1030F000B7BA10B50446FFF7FCFA002808BF10BDA8
:103100008622A148A149007800EB800001F8102038
:1031100001EB4001002240204A708870FF2C06D04D
:10312000601CC8709F480078042804D00EE0CA7064
:103130008A71CA7121E09C489C4B00781B78184327
:1031400004D0532088715420C87116E09848994BD8
:1031500000781B78184306D09748007818B14A20A9
:103160008871582008E08C4800EB440000F540507E
:10317000B0F8BE0D030A8B71C871012008714A7145
:10318000BDE81040FFF76CBA10B5FFF7B2FA00289F
:1031900008BF10BDA8227C487C49DFF820C2007817
:1031A000002300EB800001F8102001EB40010B220E
:1031B0004A70834A8B70BCF800001278000B12F042
:1031C000010F14BF40F0800020F0800012F0020FC9
:1031D00014BF40F0400020F0400012EA121F14BF5C
:1031E00040F0200020F02000764A1278FF2A73D0A9
:1031F000531CCB70684B03EB420202F54052B2F80D
:10320000BE2D130A0B714A718871BCF802006E4A18
:10321000000AC87112780020002A18BF80206B4A6B
:103220001278002A18BF40F04000694A1278002A3C
:1032300018BF40F02000674A1278002A18BF40F0FB
:103240001000654A1278002A18BF40F00800634A4F
:103250001278002A18BF40F00400614B1B78002B45
:1032600018BF40F002005F4B1B78002B18BF40F0E6
:10327000010008725C4B00201B78002B18BF402017
:103280005A4B1B78002B18BF40F02000584B1B787E
:10329000002B18BF40F01000564B1B78002B18BFB6
:1032A00040F08000002A18BF40F008003D4A127824
:1032B000092A08BF40F0040003D00A2A08BF40F0E2
:1032C00002004D4A1278002A18BF40F001004872EF
:1032D000BDE81040FFF7C4B9CB700B714B7193E799
:1032E0002DE9F04106460D4617461C46FFF701FA48
:1032F000002808BFBDE8F081B8212348037823489F
:1033000003EB830300EB430C00F8131001218CF84E
:1033100001108CF802608CF80350280A8CF8040025
:103320008CF805708CF80640200A8CF80700200CF9
:103330008CF80800200E8CF80900BDE8F041FFF77A
:103340008FB970B505460C46FFF7D3F9002808BFC2
:1033500070BDB8220C4801780C4801EB810100F8DF
:103360001120012200EB410100204A708D700B18E2
:10337000401C14F8012BC0B2DA700728F7D3BDE85F
:103380007040FFF76DB9000050120010804500102A
:10339000EC1200100410001000C0072009140010E7
:1033A00008140010B41400109913001094130010A6
:1033B0004013001041130010E5130010B814001062
:1033C0007B1300103B130010C1120010F312001009
:1033D000131300104F13001078130010CE120010BA
:1033E0007713001054130010EB120010F5120010A8
:1033F000D212001050130010881300102DE9F04174
:1034000005460E4617469846069CFFF772F90028B7
:1034100008BFBDE8F08186213048007800EB800CC1
:103420002F4800F81C10002100EB4C0C01208CF8F8
:1034300001108CF802508CF803608CF804008CF8B2
:1034400005708CF806808CF80740BDE8F041FFF766
:1034500007B910B5FFF74DF9002808BF10BDD622F7
:103460001E481F49007800EB800001F8102001EB96
:1034700040001C490B2242700A7882704A78C27060
:103480008A780271CA7842710B794A7963F3DF0254
:103490008271C988C171BDE81040FFF7E1B810B56D
:1034A000FFF727F9002808BF10BD54220B480C492C
:1034B000007800EB800001F8102001EB40000A4981
:1034C0000A224270096881700A0AC2700A0C0271ED
:1034D000090E4171BDE81040FFF7C2B8501200104C
:1034E000804500100A150010001400102DE9F003AB
:1034F0004FF0E0264FF00075C6F88051FF490024D8
:10350000087831282EBF0C70401C0870FC4F3878AA
:1035100060B3DFF8F0C3DFF8F0834FF002099CF8E6
:10352000000000EB800118F8112002F00F0349EAB7
:103530000349F64BC3F8309008EB410102F0F0026A
:1035400091F8018048EAC2025A63D1F802209A63D6
:10355000D1F80610D963212159603C7031282EBF63
:103560008CF80040401C8CF8000003E0E84801782B
:10357000491C0170C6F80051BDE8F0037047E548EA
:103580000078002808BF7047E348007864280FD20D
:10359000DF48E24A0178106832290BD3E04B196802
:1035A00011F4807F04D141F48071401D19601060D6
:1035B0000020704700281CBF401E1060012070478B
:1035C00010B50446FFF7DBFF002808BF10BDB82286
:1035D000CA48CD49007800EB800001F8102001EBCB
:1035E000400101224A70802088700020C870087154
:1035F00048718C71200AC871200C0872200E487224
:10360000BDE8104072E72DE9F843C64DC64A0024D4
:10361000287800EB800002EB400C12F810009CF8B8
:103620000110A02862D007DA10282ED0902804BFFD
:103630000020BE4E59D109E0C0287ED0F02802BF3C
:1036400064299CF8020011284FD1D5E00CEB000151
:1036500089783154401CC0B20728F7D3B0790128CB
:1036600003D10121084608F039FF3078022818BF3D
:103670008F2803D0902818BF912836D1AC48007B02
:10368000012888BF00F05EFDBAE09CF8040010F04D
:10369000100F2AD0BCF802C0ACF50140123818BF98
:1036A000012803D00F2810D02F281ED1A1F110001F
:1036B0006E280AD29F4AA04B002052F8206043F89F
:1036C0002060401CC0B20428F7D394480268521C02
:1036D0000260ACF50140413807D101F1800081B2B0
:1036E00005230022604607F0F5F889E0BCF80300E6
:1036F0009CF80510A0F58050263851D19CF80200A6
:1037000000F07F00012808BF012979D1BCF806002C
:10371000DFF828C208268A4F02281FD1894A8CF870
:10372000004005211170884A0221DFF820821170C3
:103730000022002108EB021300E019E05C54491C50
:10374000C9B21029F8D3511CCAB2042AF1D3804956
:10375000FF220A704A707F490A703E709CF8001080
:1037600002294DD13E700AF038FC7B49088047E0C1
:10377000012945D19CF80200784E00F0E001402973
:103780002AD003DAF1B1202906D10AE060292ED02F
:10379000802908BF348033D034807148FFF710FF90
:1037A0002EE0BCF803709CF80510348001230093D0
:1037B00002460CF10603384603F01FFE00B3FFF784
:1037C000FFFE1DE00CF10301012203F065FFB8B11B
:1037D000FFF7F6FE348013E0BCF803009CF80510F8
:1037E0003480012203F0A4FC0028E8D108E003F0B3
:1037F00088FD0028ECD103E05A499CF803000870CA
:10380000287831282EBF2C70401C28705649087823
:10381000401E0870BDE8F8832DE9F04106460F46CA
:1038200015469846069CFFF7AAFE002808BFBDE88B
:10383000F081C82231480178334801EB810C00F84F
:103840001C2000EB4C0C280A8CF801608CF80270EC
:103850008CF803508CF804008CF805808CF8064036
:10386000200A8CF80700200C8CF80800200E8CF839
:103870000900BDE8F04139E6F0B506460F461546A9
:103880001C46FFF77CFE002808BFF0BDC8211B487E
:1038900002781D4802EB820200F8121000EB42028F
:1038A000002056709770002C07D91318401C15F88B
:1038B000011BC0B2D9708442F7D8072C38BF002052
:1038C00005D21119C870611CCCB2072CF9D3BDE820
:1038D000F0400BE6F0B506460D4617461C46FFF7CE
:1038E0004EFE002808BFF0BDB82104480378064802
:1038F00003EB830300F81310012137E0611200107D
:103900006212001060120010804F0010008004400E
:103910005F12001063120010611300102C140010CD
:103920005C1300105D120010804D00106414001034
:1039300000C00720C059001000590010B512001037
:10394000B6120010B8120010B71200100058001084
:10395000A01400109D140010B2120010A412001048
:1039600001000405741400105C12001000EB430CFD
:10397000280A8CF801108CF802608CF803508CF83F
:1039800004008CF805708CF80640200A8CF80700BB
:10399000200C8CF80800200E8CF80900BDE8F040DF
:1039A000A4E530B505460C46FFF7E9FD002808BF41
:1039B00030BDB822F0480178F04801EB810100F8F1
:1039C0001120012200EB410100204A708D700B187C
:1039D000401C14F8012BC0B2DA700728F7D3BDE8F9
:1039E000304083E530B505460C46FFF7C8FD00289A
:1039F00008BF30BD0321E048E04B0278002002EB15
:103A0000820203F8121003EB420250709570D470DA
:103A1000BDE830406AE510B50446FFF7B0FD002868
:103A200008BF10BD8622D448D449007800EB80003E
:103A300001F8102001EB4001002240204A708870FC
:103A4000FF2C06D0601CC870CD480078042804D034
:103A50000EE0CA708A71CA7121E0CA48CA4A007869
:103A60001278104304D0532088715420C87116E096
:103A7000C648C74A00781278104306D0C548007877
:103A800018B14A208871582008E0C34800EB440070
:103A900000F54050B0F8BE0D020A8A71C8710120CD
:103AA0000871FF204871BDE810401FE52DE9F04185
:103AB00005460E4617469846069CFFF760FD00280F
:103AC00008BFBDE8F0818621AB48007800EB800C90
:103AD000AA4800F81C10002100EB4C0C01208CF8C7
:103AE00001108CF802508CF803608CF804008CF8FC
:103AF00005708CF806808CF80740BDE8F041F5E4CD
:103B0000DFF898C230B4DCF81C00A54C10F4006F4C
:103B10004FF0410518D0A3494FF0007008604FF4F2
:103B20008032CCF8402040F20172CCF844204FF0B3
:103B30000502CCF84820CCF8045041F8800C4FF036
:103B40000000207030BC70470021974A084652F8A8
:103B50002030002B18BF0121401CC0B20428F6D32E
:103B60008F48007851B164280AD390490A6842F41A
:103B700000520A608E490A68521D0A60642801D802
:103B8000401C20708B4914200870CCF8045030BCC5
:103B9000704700B5FFF7F3FC002808BF00BDA8215F
:103BA0007548764A007800EB800002F8101002EBAE
:103BB00040000121417081700021C17021220271F9
:103BC0006F4A417112788271C171017241725DF860
:103BD00004EB8BE400B5FFF7D2FC002808BF00BD62
:103BE000D62265486549007800EB800001F8102076
:103BF00001EB400070490B2242700A7882704A78CB
:103C0000C2708A780271CA7842710B794A7963F37B
:103C1000DF028271C988C1715DF804EB66E410B5FA
:103C2000FFF7ADFC002808BF10BDA8225248534939
:103C3000DFF888C10078002300EB800001F8102035
:103C400001EB40010B224A705D4A8B70BCF800000A
:103C50001278000B12F0010F14BF40F0800020F02A
:103C6000800012F0020F14BF40F0400020F040002E
:103C700012EA121F14BF40F0200020F02000514A29
:103C80001278FF2A73D0531CCB70434B03EB4202D4
:103C900002F54052B2F8BE2D130A0B714A718871B9
:103CA000BCF80200484A000AC87112780020002AB5
:103CB00018BF8020454A1278002A18BF40F0400003
:103CC000434A1278002A18BF40F02000414A127877
:103CD000002A18BF40F010003F4A1278002A18BF8F
:103CE00040F008003D4A1278002A18BF40F0040056
:103CF0003B4B1B78002B18BF40F00200394B1B7860
:103D0000002B18BF40F001000872374B00201B78D1
:103D1000002B18BF4020354B1B78002B18BF40F0FC
:103D20002000334B1B78002B18BF40F01000314BA4
:103D30001B78002B18BF40F08000002A18BF40F00D
:103D400008000F4A1278092A08BF40F0040003D087
:103D50000A2A08BF40F00200274A1278002A18BF3A
:103D600040F001004872BDE81040FFF7BFBBCB70C8
:103D70000B714B7193E7000061120010804F00102F
:103D8000B414001099130010941300104013001085
:103D900041130010E513001000C00720008004400C
:103DA0006113001080E100E0C05900105C130010A6
:103DB0002C140010621300100A150010B814001023
:103DC0007B1300103B130010C1120010F3120010FF
:103DD000131300104F13001078130010CE120010B0
:103DE0007713001054130010EB120010F51200109E
:103DF000D212001050130010881300100FF077BC7F
:103E000070B5FE4CFE4982B0207800EB800011F8BE
:103E1000102001EB4001802A05D0902A04BF002029
:103E2000F84A3DD194E0C879D0BB8878F64D022895
:103E300005D08F281CBF902891287FD143E04A7974
:103E40007AB3FF2A7AD0521E91F803C08B79D2B28E
:103E5000BCF1010F06D0BCF1020F12D0BCF1030F70
:103E600020D06BE005EBC20C9CF8026036EA03033D
:103E70008CF8023004BF15F8323023F002035DD114
:103E80001EE005EBC20C9CF8036036EA03038CF8D5
:103E9000033004BF15F8323023F004034ED10FE095
:103EA00064E04BE005EBC20C9CF8046036EA0303C7
:103EB0008CF8043004BF15F8323023F008033DD1EC
:103EC00005F832303AE0CA78002A18BFFF2A35D008
:103ED000521E8B79D2B28F2804D0902811D091280D
:103EE0001ED02BE005EBC20C9CF8056036EA0303FC
:103EF0008CF8053004BF15F8323023F010031DD1C3
:103F0000DEE705EBC20C9CF8066036EA03038CF88A
:103F1000063004BF15F8323023F020030ED1CFE76E
:103F200005EBC20C9CF8076036EA03038CF80730F7
:103F300004BF15F8323023F04003C1D00B23002218
:103F4000CDE900238B794A79C978FEF7CDF90DE0E8
:103F50000B189B781354401CC0B20728F8D39079F3
:103F6000012803D10121084608F0B8FA2078312849
:103F70002CBF0020401C2070A4480178491E01700D
:103F800002B070BDA24810B50078002808BF10BD6F
:103F9000A048007832283CBF012010BD9E49086827
:103FA00010F4803F0DD140F4803008609B4803231B
:103FB00000220168491D0160012148F2691006F0E4
:103FC00089FC002010BD2DE9F0439549002583B000
:103FD000087831282EBF0D70401C0870914E307843
:103FE000F0B34FF0E0284FF40027C8F880718E4CF2
:103FF0008E4B207800EB800013F8102002F00F01A8
:1040000002F0F00C03EB400250784CEAD0038DF83C
:10401000003040018DF801000020002988BF6B4668
:104020000BD902EB000C03EB0009401C9CF802C00A
:10403000C0B289F802C08142F3D86A4631200FF03D
:104040001CFB0822114630200FF0B2FA35702078A0
:1040500031282EBF2570401C2070C8F8007100E088
:1040600002E003B0BDE8F0836A490878401C08709C
:10407000F5E730B583B0FFF785FF002804BF03B034
:1040800030BD6B48E0226F4C407B4FF40025411C53
:1040900042EAD10140018DF8001020308DF8010076
:1040A00064480521007841EA0060CDF802006248CA
:1040B000624900880978000440EA012060490978D3
:1040C000491C0843CDF8060025606A464FF00801F8
:1040D0004FF041000FF0D1FA8822114640200FF036
:1040E00067FA44F8805C03B030BD2DE9F04706461E
:1040F0000F4690469946089DFFF744FF002808BFE9
:10410000BDE8F087862246484849007800EB8000E9
:1041100001EB400C01F81020454A537B012202FAC2
:1041200003F48CF801408CF802608CF803708CF872
:1041300004408CF805808CF806908CF80750BDE898
:10414000F04740E710B5FFF71DFF002808BF10BD7E
:104150009722334835490123007800EB800001F8AD
:104160001020334A01EB40010020527B03FA02F297
:104170004A70244A01EB000C135C401CC0B28CF85E
:1041800002300728F6D3BDE810401CE70021DFF815
:1041900070C00A4601EB810300200CEB43031A5464
:1041A000401CC0B20A28FAD3481CC1B23229F1D34C
:1041B00016480270114802702348027070470021AF
:1041C000DFF868C00A4601EB810300200CEB4303D3
:1041D0001A54401CC0B20A28FAD3481CC1B2322972
:1041E000F1D30C480F4902700F4802700C4802705E
:1041F0000120087006490870704700006D12001019
:104200008053001064140010801500106C12001010
:10421000731200106F1200105C13001030140010A5
:1042200071120010721200107012001080550010F0
:1042300000C007200A1300100C1300100B1300100D
:104240000913001080E100E06E1200102DE9F04724
:10425000414C424E434D21780A27DFF80481D6F8BD
:1042600000C028684FF001090022F1B12346DFF8B1
:10427000F8A05B680A2926D00B291CBF2270BDE874
:10428000F087834228BFBDE8F0879AF80010002924
:1042900001BF2CF47F00306088F8009022701EBFB0
:1042A00027700A306060BDE8F0871CF47F0F04BF00
:1042B00088F80090BDE8F08727701430606088F8B7
:1042C0000020BDE8F087834228BFBDE8F087DFF813
:1042D0009CC0274E274F8CF8002032703A708AF825
:1042E0000020DFF894A0002101EB810300200AEBFD
:1042F00043031A54401CC0B20A28FAD3481CC1B266
:104300003229F1D31D48002102701D4802701D485A
:1043100002701D4880F8009088F80090DFF86C80EB
:1043200001EB8103002008EB43031A54401CC0B288
:104330000A28FAD3481CC1B23229F1D38CF80020E4
:1043400032703A700FF0D3F92868323060600B2079
:104350002070BDE8F0870000081000105C1300100A
:1043600073120010A8130010741200106C120010C9
:104370006D1200106E120010805500106F120010A8
:104380007012001071120010721200108053001091
:104390000021DFF808C30A4601EB810300200CEB83
:1043A00043031A54401CC0B20A28FAD3481CC1B2B5
:1043B0003229F1D3BA480270BA480270BA48027082
:1043C00070470021DFF8E4C20A4601EB81030020B8
:1043D0000CEB43031A54401CC0B20A28FAD3481C01
:1043E000C1B26429F1D3B2480270B2480270B24837
:1043F0000270704710B40021DFF8C0C20A4601EB1A
:10440000810300200CEB43031A54401CC0B20A285D
:10441000FAD3481CC1B26429F1D3A9484FF0010C6A
:10442000A24C0270A74800210270A7480270A7485A
:1044300080F800C001EB8103002004EB43031A5411
:10444000401CC0B20A28FAD3481CC1B26429F1D377
:104450009748027097480270974802709C4880F80D
:1044600000C010BC70472DE9F05F9A489A4E0025B5
:10447000B0F8120F316800EB8000A84601EB400B4A
:1044800002F02EF83068954F1430002438609448BC
:1044900004703868316888427ED2DFF84892DFF8CD
:1044A00048A2D9F800009AF8001000F0550201F077
:1044B00080031A4371D0B8F1000F17D0DFF82C82B7
:1044C000D8F8081011F0800F04BF20F01000C9F8D0
:1044D000000005D086480078002818BFFEF705FCCC
:1044E000D8F8080010F0020F7FD178E010F0100F1C
:1044F0001CBF804804700021704B01EB810200203A
:1045000003EB42021454401CC0B20A28FAD3481CE0
:10451000C1B26429F1D36A480122644B047069482E
:1045200000210470684804706848027001EB810C37
:10453000002003EB4C0C0CF80040401CC0B20A28D1
:10454000F9D3481CC1B26429F0D3DFF86491DFF8D5
:1045500064C1DFF8648189F800405D488CF8004050
:1045600088F80040DFF834A10270002101EB8102DD
:1045700000200AEB42021454401CC0B20A28FAD3AD
:10458000481CC1B23229F1D3454800210470454886
:1045900004704548047001E067E04DE001EB8102E2
:1045A000002003EB42021454401CC0B20A28FAD384
:1045B000481CC1B26429EED389F800404E488CF8FB
:1045C000004088F800400470FDF7CCF930684FF0E7
:1045D000010800F11E014948016043E005E0D9F8F7
:1045E000000020F00800C9F800002D4800783228AB
:1045F00005D2D9F8000020F00400C9F800002C48CA
:104600000078642805D2D9F8000020F04000C9F8ED
:10461000000039480078642805D29AF8000020F09C
:1046200080008AF80000D9F800004FF0000820F060
:104630002100C9F8000015E02F482E4A047001201F
:10464000107021F080002E498AF80000FF200870C9
:104650001AF0EBFE1AF040FA2A480078082818BF32
:10466000BDE8F09F30681430386001F039FF8DB933
:10467000306883450ED224484FF0010980F800903D
:10468000FF20FCF77EF82148012580F800902048A3
:1046900080F8009009F054FCFBE600008043001015
:1046A0004B1200104C1200104D12001080490010E7
:1046B00053120010551200105412001080450010C3
:1046C0004E1200104F120010501200105112001024
:1046D0005612001000F00720A8130010C01400109C
:1046E000CA1200105C130010A21300100040044016
:1046F000F71300105212001060130010581200102F
:10470000A0130010B4140010111300107713001040
:10471000781300102DE9F05FFE480668FE48FF4957
:10472000FF4F0268964205D13A680B689A4208BF6B
:10473000BDE8F09F0024DFF8EC93DFF8ECA3DFF88E
:10474000EC8326FA04F000F00101F3480068E04031
:1047500000F0010081420AD13868E04000F0010118
:10476000EE480068E04000F00100814274D0152C52
:10477000C4EBC4003FD200EB080595F8320138B312
:1047800095F83801012808BF002065D1291891F853
:10479000321109F80010401CC0B20528F6D3386861
:1047A00001217040E04000F0010B89F805B0084697
:1047B00007F094FE95F832018F280ED009DA02280E
:1047C0000BD0842868D095F833115A46FEF772FB57
:1047D00042E0902818BF9128F5D198F80C000128E4
:1047E00088BFFFF7AFFC95F8331195F832015A46B0
:1047F000FEF760FB30E000EB080101F5804595F81D
:10480000620248B395F86802012808BF002023D14E
:104810000A1802F5804292F8622209F80020401C32
:10482000C0B20528F4D3386801217040E04000F0A0
:10483000010B89F805B0084607F050FE95F86202B2
:104840008F281BD016DA022818D0842824D095F897
:1048500063125A46FEF72EFB601CC4B2182CFFF4FC
:1048600070AFAC480168AC480160AC483968016081
:10487000BDE8F09F902818BF9128E8D198F80C0067
:10488000012888BFFFF75EFC95F8631295F8620275
:104890005A46FEF70FFBDFE79AF80000FEF7C7FB6A
:1048A000DAE78F280AD005DC022818BF052805D0D2
:1048B00000207047902818BF9128F9D10120704737
:1048C0002DE9F007994F0126994D079C8F2828D094
:1048D00023DA022818BF052823D049287ED044288F
:1048E00012BF4C28BDE8F00770474FF0000CCCEB2E
:1048F000CC08B84498F8CC91814570D198F8CD9106
:10490000894512BF002998F8CF91914567D198F851
:10491000D08118EA030F7DD122E1902818BF912899
:10492000DBD102280CBF94468C46BCF1FF0F08BFB8
:10493000002119D04FF00F084FF0000C28EA0308AF
:10494000CCEBCC033B4493F8CC91814501BF93F869
:10495000CD91894593F8CF9191453AD193F8D031D3
:1049600013EA080F35D128E0C1EBC1023A4492F8AE
:10497000CC21824205D12B7806FA01F223EA020209
:104980002A70491CC9B20429EED30021C1EBC1022F
:104990003A4402F5804292F81823824206D10A1D59
:1049A0002B7806FA02F223EA02022A70491CC9B2E5
:1049B0000229EBD3BDE8F007704795F8009014F09A
:1049C000010F06FA0CF314BF43EA090329EA0303B3
:1049D0002B700CF1010303F0FF0C01E031E0CFE09C
:1049E000BCF1040FACD30023C3EBC30CBC440CF5E7
:1049F000804C9CF81893814501BF9CF81993894518
:104A00009CF81B93914515D19CF81CC31CEA080F18
:104A100010D100E0A7E003F1040C95F8009014F029
:104A2000010F06FA0CFC14BF4CEA090C29EA0C0C25
:104A300085F800C05B1CDBB2022BD5D3BDE8F007C4
:104A4000704711F00F0F1CBF4FF0000C01F00F0961
:104A50003FF44BAFCCEBCC01394491F8CC8180458D
:104A60001ED191F8CD8118EA090F02D1B8F1000FDB
:104A70002DD191F8CF8190451CBFFF2AB8F1000FCE
:104A800025D191F8D011194200D101BB14F0010FCA
:104A90001DD095F8008006FA0CF141EA0801297052
:104AA0000CF1010101F0FF0CBCF1040FD2D3002185
:104AB000C1EBC10CBC440CF5804C9CF818838045BC
:104AC0003ED19CF8198318EA090F0AD106E095F83F
:104AD000008006FA0CF128EA0101E0E7B8F1000FC6
:104AE00035D19CF81B8390451CBFFF2AB8F1000FFD
:104AF0002DD19CF81CC31CEA030F02D1BCF1000F9E
:104B000025D114F0010F22D001F1040C06FA0CFC9F
:104B100010E00000781200107C12001060140010E9
:104B200080120010641400104E13001000C0072003
:104B30007512001095F800804CEA080C85F800C04A
:104B4000491CC9B20229B3D3BDE8F007704701F18F
:104B5000040C95F8008006FA0CFC28EA0C0CEDE732
:104B6000B8F1000F0CD195F8009014F0010F06FA7F
:104B70000CF814BF48EA090829EA080885F80080FB
:104B80000CF1010C0CF0FF0CBCF1040FFFF4AFAE04
:104B90004FF0000CCCEBCC08B84408F5804898F8EE
:104BA000189381451FD198F81993894512BF0029A0
:104BB00098F81B93914516D198F81C8318EA030FB7
:104BC00002D1B8F1000F0ED10CF1040895F8009055
:104BD00014F0010F06FA08F814BF48EA090829EA98
:104BE000080885F800800CF1010C0CF0FF0CBCF1FA
:104BF000020FCFD3BDE8F00770472DE9F04FFE4913
:104C0000FF2891F80D6208D016F0040F05D1FB497A
:104C10000978002918BFBDE8F08FF9480078052809
:104C200004BFF84890F800C005D006280CBFF6482D
:104C3000F64890F800C0DFF8D8A300229AF80500E3
:104C40009AF804B0B0EB0B085CBF0CF10109F14F0E
:104C500044DB0AEB0200837E580903F01F0157F87A
:104C60002000C84010F0010F34D116F0200F3AD1C7
:104C70000021634513D909F0FF00834233D9440969
:104C800000F01F0557F82440EC4014F0010F18BF46
:104C90000121401CC0B28342F1D8D9B923E05D1C88
:104CA0006046AC451FD9441E4FEAE47E04EBDE6348
:104CB0004FEA631E23F01F0357F82EE0E31A2EFA83
:104CC00003F313F0010F18BF0121401EC0B2A84228
:104CD000E9D841B1501CC2B24245BADDCE481BF8FA
:104CE0000000BDE8F08F0AEB0200807EBDE8F08F87
:104CF000C3480078182816D0C848BF490278C84869
:104D0000402A007818BF032802D191F8F22142B955
:104D1000062806D0052806D191F80D0210F0010FE3
:104D200001D00120704700207047BE480078C8B10C
:104D3000BD480078B0B9BD480078A8B9BC48016842
:104D4000BC48006881420FD2BB49BC4A097812783E
:104D5000114307D1BA490968814205D2A648B0F883
:104D6000740208B101207047002070472DE9F84F08
:104D7000A14A4FF461634FF4616492F86B124FF4EF
:104D8000616501FB03FCA2F580514FF4616691F867
:104D90002C3E0020C3EB03130CEB830392F86CC290
:104DA0004FF461670CFB04F491F82DCE4FF4616869
:104DB000CCEB0C1C04EB8C0491F830CE4FF4616A00
:104DC0000CFB05F591F831CE4FF4616BCCEB0C1C6C
:104DD00005EB8C0CCDF800C091F832CE4FF4616534
:104DE0000CFB05F591F833CE4FF4616ECCEB0C1C47
:104DF00005EB8C0591F838CE0CFB06F691F839CE10
:104E0000CCEB0C1C06EB8C0C91F83A6E774391F8C6
:104E10003B6EC6EB061607EB860692F86D7292F8AB
:104E20006E2207FB08F891F82E7EC7EB071708EBF8
:104E300087074FF4616802FB08F891F82F2EC2EB48
:104E4000021208EB820991F8342E4FF4616802FBDC
:104E500008F891F8352EC2EB021208EB820291F8A5
:104E6000368E08FB0AFA91F8378EC8EB08180AEB61
:104E7000880A91F83C8E08FB0BFB91F83D8EC8EB3D
:104E800008180BEB880891F83EBE91F83F1E0BFB0B
:104E90000EFBC1EB01110BEB810B6A49897801FB19
:104EA0000EFE68494978C1EB01110EEB8101994270
:104EB00028BF8C4208D2009B994228BF8D4203D262
:104EC000614528BF8E4200D30120B94228BF8945E1
:104ED00008D2914228BF8A4504D241452CBF8B4558
:104EE000BDE8F88F40F00200BDE8F88F2DE9F04FE3
:104EF00043484B49FF2402780878DFF8388183B0B3
:104F00002646042A08BF002802D14F4A12784AB127
:104F10003F4AD8F80030D28A02EB820203EB420209
:104F20004A4B1A604A4ADFF834C14FF0010913783E
:104F3000484A12781343484A12781A4318BF8CF82B
:104F40000090474A474F2C4D12784FF0000A1AB193
:104F5000454A82F800A01AE0444A12786AB995F8E6
:104F60000D2212F0080F0CD02A4BD3F800B0BBF181
:104F7000000F04BF5B68002B03D03B4A82F800900F
:104F800007E012F0100FE3D1374A12780AB9FF2276
:104F9000FA71324A13780222002B18BF062001D082
:104FA000087023E0304B1B78002B18BF0520F7D189
:104FB0001C4B1B782BB11C4B1B78002B08BF04200B
:104FC000EED02B4B1B781BB1032898BF0320E7D9E9
:104FD000284B1B781BB1022898BF0A7006D9264BB4
:104FE0001B781BB1012898BF81F800902348244BFF
:104FF00000781B78184345E000000820901300104B
:10500000B4140010B61400103D1300103B13001030
:1050100000C00720F81200101AC007200413001067
:1050200013130010D2120010D5120010D412001069
:10503000DC120010A8130010D3120010E2120010AE
:10504000D81200100A150010FB130010C414001031
:10505000EF120010ED120010EE120010EB12001013
:10506000F612001010100010F5120010F3120010CC
:10507000BF120010BE120010BD120010501300101D
:10508000C512001018BFF126087840B126F01F069F
:10509000022822BF26F02006032826F04006FB4BFC
:1050A0001B78002B18BF0026F94BDFF8E8C31B78EC
:1050B0009CF800C003F00F0353EA0C0305D1F64B34
:1050C0001B7813B1F54B1B7803B10024F44BDFF8C8
:1050D000D4C3DFF8D8B383F800A008238CF80030DD
:1050E000F14B1B781BB1EE4B1A700A2209E0F04A13
:1050F0009BF8003012781A4305D0E94A82F80090F4
:1051000009228CF80020F0BBEA48EB4900780978C6
:105110000843EA4909780843E94909780843E94915
:1051200009780843E8490978084318BF0024E7488C
:10513000007848B1012124F00E040846FBF759FC21
:10514000002818BF24F00104DA48007840B1FF219C
:105150000120FBF74EFC00281CBFFF20FBF711FBD2
:1051600095F8F80195F8F911D94B884204D29A784C
:10517000824201D3914208D8814209D29A78824270
:1051800003D28A4200E0B8E002D28BF8009001E03E
:105190008BF800A095F86B02DFF838B324F0800498
:1051A000E0BBCD4890F82C1E002904BF90F8301EBB
:1051B000002954D190F8311E002904BF90F8381E00
:1051C00000294CD190F8391E002904BF95F86C12C3
:1051D000002944D190F82D1E002904BF90F8321EFA
:1051E00000293CD190F8331E002904BF90F83A1EE4
:1051F000002934D190F83B1E002904BF95F86D12A8
:1052000000292CD190F82E1E002904BF90F8341EDE
:10521000002924D190F8351E002900E01FE004BFCA
:1052200090F83C1E00291AD190F83D1E002904BFB9
:1052300095F86E12002912D190F82F1E002904BF94
:1052400090F8361E00290AD190F8371E002901BFB8
:1052500090F83E1E002990F83F0E002813D0FFF76B
:1052600085FD00F001018BF8001000F002019B4861
:1052700001709B499BF800000978084318BF24F08F
:1052800004040ED105E095488BF800A080F800A03A
:10529000EFE79248934900780978084318BF24F053
:1052A000020491480078002808BF87F80CA024D099
:1052B000387B002408BBFF20FBF763FA8B4A8C483D
:1052C0001179007881429CBF5179884213D889496D
:1052D00011F8303043F0800301F8303001EBC001A9
:1052E0001044854A00F540504B7890F8870D1278AD
:1052F00010401843487087F80C908048DFF800B2DF
:10530000007801287ED17F4839790078884221D001
:10531000002895F8E50117D010F0010F1CBF0120FF
:10532000FBF72FFA95F8E20100281CBF0E20FBF7CF
:1053300028FA95F80002D8F8001000EB800001EB85
:1053400040017148016005E010F0020F1CBF012010
:10535000FBF717FA6B4801786C480078084308D1CE
:105360006B480288B2F5A04F03D04088B0F5A04F3B
:105370000DD195F8030200EB8002D8F8000000EB95
:105380004200DBF80020904288BFCBF800005E4B63
:10539000D8F800001A68904210D85D4AB2F800C0F0
:1053A000BCF5A04F1CBF5288B2F5A04F06D195F8AE
:1053B000002202EB820200EB42021A6095F80A22F8
:1053C000002A08BF24F0010495F8062202B131B189
:1053D00095F8001200291CBF1968884202D924F0F0
:1053E000800402E02E4A0321117095F8E211002991
:1053F00018BF24F00E0447490A78474909788A42C1
:105400001ED100E01CE0454A1278102A18D1444A07
:10541000525C444909780A4043490B780721994373
:105420000A420DD095F8031224F0010401EB81012A
:1054300000EB4100DBF80010884288BFCBF8000089
:105440002E480078022820D138487979007888429F
:1054500076D0002895F8E6016CD010F0010F1CBF43
:105460000120FBF78EF995F8E30100281CBF0E2000
:10547000FBF787F995F80102D8F8001000EB8000DF
:1054800001EB4001204801605AE0D0E04F130010CA
:105490005213001044130010541300104014001055
:1054A00035130010361300109D1300109B130010CD
:1054B0009C130010C0120010991300109A130010D2
:1054C0009E13001036120010951300107D1300106B
:1054D0000A1500102713001000F0072028130010F1
:1054E000291300102A130010E812001000C0072032
:1054F000E912001080150010EA12001013130010BA
:1055000014130010BD1200101813001039130010EE
:10551000B8140010071300103B13001006130010FE
:105520004058001008130010BE140010BE120010E6
:1055300006E0FFE710F0020F1CBF0120FBF721F986
:10554000FC480178FC480078084308D1FB480288F1
:10555000B2F5A04F03D04088B0F5A04F0DD195F81B
:10556000040200EB8002D8F8000000EB4200DBF8F8
:105570000020904288BFCBF80000F14BD8F8000023
:105580001A68904210D8ED4AB2F800C0BCF5A04F9E
:105590001CBF5288B2F5A04F06D195F8012202EB4C
:1055A000820200EB42021A6095F80B2212F0010F02
:1055B00008BF24F0010495F8072202B131B195F833
:1055C000011200291CBF1968884202D924F0800406
:1055D00002E0DC4A0421117095F8E311002918BF9C
:1055E00024F00E04D8490A78D84909788A421ED195
:1055F000D74A1278202A1AD1D64A114491F8372076
:10560000D54909780A40D5490B78072199430A42C0
:105610000DD095F8041224F0010401EB810100EB98
:105620004100DBF80010884288BFCBF80000CC486E
:10563000007803287ED1CB48B9790078884221D000
:10564000002895F8E70117D010F0010F1CBF0120CA
:10565000FBF797F895F8E40100281CBF0E20FBF734
:1056600090F895F80202D8F8001000EB800001EBEA
:105670004001B348016005E010F0020F1CBF01209B
:10568000FBF77FF8B7480178AB480078084308D1AA
:10569000AA480288B2F5A04F03D04088B0F5A04FC9
:1056A0000DD195F80502D8F8002000EB800002EB40
:1056B0004000DBF80020904288BFCBF80000A04BF0
:1056C000D8F800001A68904210D89C4AB2F800C07E
:1056D000BCF5A04F1CBF5288B2F5A04F06D195F87B
:1056E000022202EB820200EB42021A6095F80C22C1
:1056F000002A08BF24F0010495F8082202B131B154
:1057000095F8021200291CBF1968884202D924F0BA
:10571000800402E08B4A0521117095F8E4110029FC
:1057200018BF24F00E0488490A78884909788A420B
:1057300020D100E01EE0864A1278402A1AD1854A1C
:10574000114491F86E20844909780A4083490B7806
:10575000072199430A420DD095F8051224F001045F
:1057600001EB810100EB4100DBF80010884288BFAB
:10577000CBF800007A480078042867D17A480024E2
:10578000007800281CBFD8F80000CBF80000DFF834
:10579000DCE19EF80000A0BB7548D8F80010006856
:1057A00088424AD27348744A00781278104306D16E
:1057B00072480068884240D2B5F8740208B3634862
:1057C000704A03786E480078834209D1634B93F89E
:1057D00000C0072323EA0C0392F800C0634511D0F0
:1057E000694B5B7998420DD868490978062931D010
:1057F0006749802301F8303001EBC0001278427015
:1058000028E01AE061480078042806D06148006862
:1058100081421FD995F87602E0B15F488EF800907A
:105820000B2380F800900122CDE9002300231A46C3
:105830009F210E20FCF758FD08E0FF210120FBF717
:10584000D8F800281CBFFF20FAF79BFF44480078D7
:10585000052809D0514887F808A080F800A04048E2
:105860000078062865D07EE1387A20B9FF20FAF763
:1058700088FF87F808903349072000240870F879DA
:10588000FFF7BBF946490870464909780029E6D078
:10589000D8F80010CBF80010F97988420DD13B4AB6
:1058A0001278042A37D1294A1278824233D0384AF2
:1058B00012F8302012F0800F2DD1FF2906D0344A83
:1058C00002F831A002EBC10181F801A0304A12F8C0
:1058D000301041F0800102F830101A49097801EBCC
:1058E000C103C3EB811328490B440344014403F56E
:1058F000405301F5405193F8443F91F8871D0B4008
:1059000002EBC0014A781A434A702749274A0978AE
:10591000491C1170F8710D49097888429FD11F48C0
:10592000017800299BD11C4981F8009080F80090F3
:1059300095E73DE0BE12001039130010B8140010B6
:105940001813001035130010071300103B1300103C
:10595000061300104058001008130010BE14001069
:1059600013130010BF120010D2120010D412001036
:10597000DC120010D3120010E2120010D812001036
:10598000E0120010E112001000C00720B414001053
:1059900080150010E412001004140010051400100B
:1059A000F4120010F5120010F01200102513001070
:1059B000FE48007800281CBFD8F80000CBF8000093
:1059C000FB480178FB480078084322D0FA48007869
:1059D00008B1787A08B1F87A18B187F80B900024EA
:1059E00024E0F64880240178F5480078814208D107
:1059F00095F8F60110F0010F04BFF24880F800A0FE
:105A000002D0F04880F8009087F8019087F8029063
:105A10000CE0EC48002480F800A087F80BA095F873
:105A2000F60110F0080F18BF87F801A0E6480078CB
:105A300068B3F87858BB787848BBFF20FAF7A1FE26
:105A4000787820BBE14ADE481179007881429CBF1A
:105A5000517988421BD8DE490244DFF878C311F837
:105A6000303002F5405243F0800301F8303001EB52
:105A7000C00192F8872D9CF800C04B7802EA0C0216
:105A80001A434A70D44987F80990401C087095F869
:105A9000F60110F0200F1DD0CB49097891B1C7490C
:105AA0000A78C74909788A4206D1CC49097807297A
:105AB00018BF87F80A9001D1B97A19B1BD4880F8AA
:105AC000009007E010F0080F04D0BA4887F80AA049
:105AD00080F800A0B648DFF8DC92007899F8001052
